:1000000010010120E1020000DD020000DD0200001D
:10001000DD020000DD020000DD0200000000000043
:10002000000000000000000000000000DD020000F1
:10003000DD02000000000000DD020000DD02000023
:10004000DD020000DD020000DD020000DD02000034
:10005000DD020000DD020000DD020000DD02000024
:10006000DD020000DD020000DD020000DD02000014
:10007000CD100000DD020000DD020000DD02000006
:10008000DD020000DD020000DD020000DD020000F4
:10009000DD020000DD020000DD020000DD020000E4
:1000A000DD020000DD020000DD020000DD020000D4
:1000B000DD020000DD020000DD020000DD020000C4
:1000C000DD020000DD020000DD020000DD020000B4
:1000D000DD020000DD020000DD020000DD020000A4
:1000E000DD020000DD020000000000000000000052
:1000F0000000000001130000DD020000DD0200002E
:10010000DD020000DD020000DD020000DD02000073
:10011000DD020000DD020000DD020000DD02000063
:10012000DD020000DD020000DD020000DD02000053
:10013000DD020000DD020000E9150000FD150000F1
:100140001116000025160000DD020000DD0200008F
:10015000DD020000DD020000DD020000DD02000023
:10016000DD020000DD020000DD020000DD02000013
:10017000DD020000DD0200000000000000000000C1
:10018000DD020000DD020000DD020000DD020000F3
:1001900000000000DD020000DD020000DD020000C2
:1001A000DD020000DD020000DD020000DD020000D3
:1001B000DD020000DD020000DD020000DD020000C3
:1001C000DD020000DD020000DD020000DD020000B3
:1001D000DD020000DD020000DD020000DD020000A3
:1001E000DD020000DD020000DD020000DD02000093
:1001F000DD020000DD020000DD020000DD02000083
:10020000DD020000DD0200001D1B0000DD02000019
:10021000DD020000DD020000DD020000DD02000062
:10022000DD020000DD020000DD020000DD02000052
:10023000DD020000DD020000DD020000DD02000042
:10024000DD020000DD020000DD020000DD02000032
:10025000DD020000DD020000DD020000DD02000022
:10026000DD02000010B5054C237833B9044B13B1FF
:100270000448AFF300800123237010BD100000205C
:10028000000000001C2100000C4B43B10C480D493C
:1002900010B5AFF300800C48036823B910BD0A48BD
:1002A000036833B97047094B002BF7D0BDE8104005
:1002B0001847064B002BF5D0184700BF0000000080
:1002C0001C210000140000201C2100000000000080
:1002D00008B5014B984708BD99050000FEE70000EE
:1002E00008B51C4B1C4A9A4210D01C4B194A9A4222
:1002F0000CD2013B9B1A23F0030304331344164929
:1003000051F8040B42F8040B9A42F9D1144B154AE8
:100310009A420AD2013B9B1A23F00303043313448D
:10032000002142F8041B9342FBD10F4B0F4A22F0ED
:100330007F029A60D3F8882042F47002C3F88820C4
:10034000BFF34F8FBFF36F8F094B9847094B984707
:10035000FEE700BF000000201C210000100000206C
:10036000100100201000002000ED00E0000000005F
:10037000451F0000BD1B000008B54022154BC3F807
:100380009020154A536943F480635361134B012253
:10039000C3F8042102F1804202F50032C3F828219B
:1003A0000F4AC3F8282193F8402102F0FB0283F89A
:1003B000402193F8402102F0FE0242F0010283F84E
:1003C000402193F8302102F0F00283F83021054BF0
:1003D000984708BD001C0040000800400080004114
:1003E000000002C035070000284B10225A619A60B5
:1003F00002F180429A624FF04041996293F84420A2
:1004000002F0FE0242F0010283F8442093F8322009
:1004100002F0F00242F0030283F8322020225A61F7
:100420009A6002F180429A62996293F8452002F044
:10043000FE0242F0010283F8452093F8322002F0D8
:100440000F0242F0300283F8322040225A6002F15B
:10045000804202F500329A620D4A9A6293F8462071
:1004600002F0FB0283F8462093F8462002F0FE02D9
:1004700042F0010283F8462093F8332002F0F002A4
:1004800042F0030283F83320704700BF0080004130
:10049000000002C0064B4022C3F89C204322C3F850
:1004A0008C20044A536943F480535361704700BF62
:1004B000001C00400008004008B5044B9847044960
:1004C0000448054B9847054B984708BD9504000024
:1004D0000030004054000020C9070000E90300007C
:1004E000064B4022C3F808214322C3F88C20044A5B
:1004F000136A43F001031362704700BF001C004001
:1005000000080040104B93F8C82002F0FE0242F0B1
:10051000010283F8C82093F8B42002F0F00242F000
:10052000030283F8B42093F8C92002F0FE0242F0DF
:10053000010283F8C92093F8B42002F00F0242F0C0
:10054000300283F8B42070470080004110B582B0BB
:10055000074B9847002300931023064A4FF086412B
:100560000548064CA047064B984702B010BD00BF97
:10057000E10400002C0000206C000020CD0C0000E5
:100580000505000008B50248024B984708BD00BFAA
:1005900010E000E0C906000008B5354B9847354B20
:1005A0000222C3F89820C3F8882002F18042C3F8E1
:1005B000A8204FF04042C3F8A82093F8C12002F0D1
:1005C000FE0283F8C1204FF48022C3F81821C3F83B
:1005D00008214FF08041C3F82811274AC3F8282189
:1005E00093F8522102F0FE0283F852214FF40022C8
:1005F000C3F81821C3F80821C3F828111F4AC3F80B
:10060000282193F8532102F0FE0283F853214FF47E
:100610008012C3F804211A4AC3F8282102F10042CB
:100620001032C3F8282193F8542102F0FB0283F81A
:10063000542193F8542102F0FE0283F85421114B07
:100640009847114B9847114B9847114B9847114ABF
:10065000136A43F04003136240220F4BC3F81C217E
:100660000E4B984702460E490E480F4B984708BD5F
:10067000AD0F000000800041040000C0080000C071
:100680000000024079030000B90400004D0500009D
:100690008505000000080040001C0040D71A00003B
:1006A00000180043BC000020FD090000EFF3108398
:1006B000036072B6BFF35F8F7047BFF35F8F03684D
:1006C00083F310887047000008B5024B1860024B96
:1006D000984708BD3C0000203D18000010B5044BB1
:1006E0001C68044B984701462046034B984710BDB1
:1006F0003C000020A10F00005118000070B50C4B09
:100700005C68A0420ED0012300211E46FF2503E0B5
:100710002B465A18520804D1A042F9D93BB13146B0
:10072000F7E770BD024B1B680BB1984770BD70BDF9
:100730004000002008B5054B4FF0FF325A60002200
:100740001A600348034B984708BD00BF40000020D3
:10075000FD060000ED0F000008B50D4B5B689842E8
:1007600006D091B10A4B1B6843B16FF00C0008BD75
:10077000074B196029B9074B984708BD044B19600E
:1007800058600121034B984708BD6FF00C0008BD6D
:1007900040000020A510000070B50D461646044626
:1007A00060B1081C18BF012034220549054B984749
:1007B0002368324629462046984770BD0020F3E75B
:1007C0008C1F0000250E000038B50D460446B8B158
:1007D000081C18BF012040220A490B4B98472046AD
:1007E00040F8045F2946094B9847002807DB4FF47F
:1007F0000043A382064B2361064BE360002038BD13
:100800000020E8E7A01F0000250E000039160000B8
:10081000BD0800008108000010B5044657220549B4
:10082000003018BF0120044B9847201D034B984708
:1008300010BD00BFA01F0000250E00002D170000F6
:1008400030B585B00C46054690B1081C18BF012094
:10085000B3220849084B98472368019363680293C1
:10086000A368039301A9281D044B984705B030BD28
:100870000020EDE7A01F0000250E00005D1700001E
:1008800070B584B00E4615460446A32208490030D0
:1008900018BF0120074B9847002302930196039548
:1008A00001A9A4F10C00044B984704B070BD00BF2F
:1008B000A01F0000250E00004108000070B584B0A4
:1008C0000E461546044687220849003018BF01200D
:1008D000074B9847029600230193039501A9A4F1C1
:1008E0000C00044B984704B070BD00BFA01F00006F
:1008F000250E00004108000038B50D46044650B1F1
:10090000081C18BF0120BD220449054B98470C3430
:100910002C60002038BD0020F5E700BFA01F0000BC
:10092000250E0000F8B5844607682FB18D683C4657
:100930000026C2F1010E0BE00E4B9847F8BD734440
:10094000A0680344AB420AD22368264653B11C4632
:1009500063689342F3D8A06803449B1AF2E7A74266
:1009600004D034462046044B9847F8BD6046014BFE
:100970009847F8BD4D0E0000790E00002DE9F047B4
:100980004469076901370761037E13F0010F13D132
:10099000037E13F0020F0FD154B36368FB1AA268F1
:1009A000934207D3064600F11408DFF84890DFF8B9
:1009B00048A012E0BDE8F087037E43F0020303760F
:1009C000BDE8F0877569E3682046984785B12C46F5
:1009D0006B68FB1AAA6893420AD34046C847237C37
:1009E000012BEFD167603A4621464046D047E9E700
:1009F000BDE8F087810E00002509000038B50D46DE
:100A0000044678B1081C18BF01203B220649074B59
:100A1000984729462046064B984700202061054B01
:100A2000236038BD0020F0E7BC1F0000250E000049
:100A3000091900007D09000010B504465322094938
:100A4000003018BF0120084B98472046074B9847B5
:100A500020B92046064B9847002010BD6FF01000CB
:100A600010BD00BFBC1F0000250E0000C51A00000D
:100A7000B11A000070B582B00D46044618B3081CC8
:100A800018BF01207A221E491E4B9847237E43F04F
:100A90000103237604F11406294630461A4B984781
:100AA00098B923696B60226929463046174B9847ED
:100AB000237E03F0FE032376237E13F0020F10D172
:100AC000002002B070BD0020DCE7237E03F0FE03AF
:100AD00023767F220A4900200A4B98476FF01100C5
:100AE000EFE701A80A4B9847237E03F0FD03237626
:100AF0002046084B984701A8074B98470020E0E79D
:100B0000BC1F0000250E00002B0E00002509000070
:100B1000AD060000DD1A0000BB06000008B500238A
:100B20008362C3691BB1A0F108021046984708BD53
:100B300008B500238362436A1BB1A0F10802104686
:100B4000984708BD38B50446A0F108052C30034B82
:100B50009847236A0BB12846984738BD210F0000FB
:100B600070B50E4615460446E0B1E9B1101C18BF39
:100B7000012040F23B120F490F4B9847B4F8442034
:100B8000B4F84C309A4211D1A664A4F84C5000231A
:100B9000A4F844300123236304F10800074B98476D
:100BA000284670BD0020E4E70020E2E76FF01B005C
:100BB00070BD00BFD41F0000250E00006B150000A3
:100BC00010B50446838FB0F844209A4209D0026CD5
:100BD000591C8187D15C044B98472046034B9847AA
:100BE00010BD034B984710BD651500006B15000044
:100BF000731500002DE9F04782B00F469046064677
:100C0000A0B199B1002A2DD14FF4AC72294900202E
:100C1000294B984701A8294B984706F13400284BE7
:100C2000984701A8274B984700253EE04FF4AC7247
:100C300020490020204B984701A8204B984706F1F7
:100C4000340A50461E4B9847814601A81D4B9847D1
:100C5000B9F1000F04D0B8F1000F19D1002524E03C
:100C6000002522E04FF4AC7212490120124B984744
:100C700001A8124B984706F1340A5046104B98478A
:100C8000814601A80F4B98470025B9F1000F0CD001
:100C900000240D4E601C85B239195046B04701340E
:100CA0004C4502D2A3B29845F4D8284602B0BDE81C
:100CB000F08700BFD41F0000250E0000AD06000025
:100CC000610F0000BB060000DD0E0000F8B50D4608
:100CD00016461F46044620B329B332B3181C18BF6A
:100CE00001203A221349144B98473A46314604F101
:100CF0003400124B9847D0B9294604F10800104B34
:100D00009847034658B90F4A62600F4A22600F4A5B
:100D1000A2600F4AE2600F4A22610F4A62611846E0
:100D2000F8BD0020DDE70020DBE70020D9E76FF009
:100D30000C03F4E7D41F0000250E00008D0E000008
:100D4000D1140000F50B0000610B0000C10B000086
:100D5000450B00001D0B0000310B000010B50446D0
:100D600061220649003018BF0120054B984704F165
:100D70000800044B9847002010BD00BFD41F00009E
:100D8000250E00005115000038B50C46054648B147
:100D9000081C18BF012077220349044B984725609F
:100DA000002038BD0020F6E7D41F0000250E00000B
:100DB00070B50C461646054683221749003018BF09
:100DC0000120164B9847012C10D024B1022C18D0CA
:100DD0006FF00C0070BDAE62321C18BF0122012101
:100DE00005F108000E4B9847002070BD6E62321C62
:100DF00018BF0122022105F10800094B9847002085
:100E000070BDEE62321C18BF0122032105F10800FB
:100E1000034B9847002070BDD41F0000250E000032
:100E20007D15000000B900BE704703684BB18B42CE
:100E300009D01B681BB19942FBD1012070470020EB
:100E400070470020704701207047000038B5044605
:100E50000D46064B984780F0010039220449C0B284
:100E6000044B984723682B60256038BD2B0E00008B
:100E7000F41F0000250E000003680B60016070473E
:100E800003680BB11A6802601846704770B50E46C9
:100E90001546044678B181B1A2B1012028220D493E
:100EA0000D4B98476B1E1D4209D163600020A06066
:100EB000E060266070BD0020F0E70020EEE76FF0F4
:100EC0000C0070BD282203490020034B98476B1E7D
:100ED000EBE700BF14200000250E000038B50D46DA
:100EE0000446A0B1081C18BF012040220A490B4B40
:100EF0009847A368E2689A420BD062681340226860
:100F0000D35C2B70A3680133A360002038BD0020A0
:100F1000EBE76FF0090038BD14200000250E00003B
:100F200038B50D46044651220B49003018BF012048
:100F30000A4B9847E368626813402268D554E36817
:100F40006168A2689A1A8A4284BF591AA160013363
:100F5000E360002038BD00BF14200000250E000013
:100F600010B5044667220549003018BF0120044B24
:100F70009847E068A368C01A10BD00BF14200000A5
:100F8000250E0000430900F01F00012202FA00F0C4
:100F90004033024A42F82300704700BF00E100E0FE
:100FA0004BF6803303FB00F07047000010B5094A90
:100FB00013889BB21380084B9847084B9847084BFF
:100FC00098470820074CA047074B984740F6F77012
:100FD000A04710BD00400041F511000015120000AF
:100FE000E9110000A9110000191200002A4B5B68EA
:100FF00013F0010F1FD1284A536813F0030FFBD1E0
:10100000254B1B7813F0020F0DD0234A137803F001
:10101000FD031370536813F0030FFBD11E4A53688E
:1010200013F0020FFBD101221B4B1A701A465368B2
:1010300013F0030FFBD1184A536813F0010FFBD1D3
:10104000154A137803F0EF031370536813F0030F7E
:10105000FBD1114B00225A709A609A6101211963E9
:101060005A63D9611A621A7842F002021A701A465B
:10107000536813F0030FFBD1084B4FF48052C3F8B1
:101080008020BFF34F8FBFF36F8FC3F880211A60AA
:10109000034B1860002070470028004000E100E08A
:1010A00048000020402802D04FF0FF30704729B997
:1010B000054B0122DA605A61002070470122024B81
:1010C0001A610020704700BF002800402DE9F04160
:1010D00082B0304B5A690192019A5A612E4B1868BE
:1010E000E8222E49003018BF01202D4B9847019B64
:1010F000002B4BD04FF0FF36274F2A4DDFF894805E
:1011000039E0B6F1FF3F04D000E0402630463B68AE
:101110009847019B012202FA04F423EA0404019493
:10112000019A92FAA2F3B3FA83F3002A08BF4FF0B0
:10113000FF3318D01C46002BE7D000221346104680
:1011400001219442C7BF0133D8B203F1FF33D9B2B2
:101150008842D6D80B18C3F3470315F83320A242B0
:10116000EFD14026D2E7D8F814300193019BC8F89C
:101170001430019B53B1019A92FAA2F3B3FA83F3AC
:10118000002A08BF4FF0FF33D4D1ECE702B0BDE82E
:10119000F08100BF002800404800002040200000EF
:1011A000250E00003820000010F0010F08D00B4A77
:1011B0000B4B1A62194643F6FD724B681342FCD181
:1011C00010F0080F08D0074A054BDA62194643F6BB
:1011D000FD724B681342FCD1704700BF0609010045
:1011E000001C0040050901000122014B5A717047A3
:1011F00000080040064B42F28E029A8200229A7545
:10120000DA75DA6902F47C52DA6101221A747047E5
:101210000014004070470000364A136A23F00F03A1
:1012200043F004031362114643F6FD724B68134208
:10123000FCD1304A536813F0040FFBD12E4B00222F
:101240001A772E4A9A621A4692F82C3013F0100F31
:10125000FAD10022284B83F820201A4692F82C302D
:1012600013F0040FFAD10222234B1A771A4692F890
:101270002C3013F0020FFAD11F4B5A6A5A621A46E9
:1012800092F82C3013F0080FFAD180221A4B83F811
:1012900020201A4692F82C3013F0040FFAD1164B86
:1012A00093F8203013F0010F1DD0134A136903F493
:1012B0001063B3F5106FF9D10E4A5368002BFCD1BF
:1012C0000C4A136A23F00F0343F00603136211461E
:1012D00043F6FD724B681342FCD1064A536813F083
:1012E000040FFBD17047044A136913F4807FFBD0CD
:1012F000E2E700BF001C00400010004000000104B5
:1013000000B583B00D4B9B78DBB20193019B13F0CA
:10131000020F06D00A4B1B681BB1084A5068984759
:1013200009E0019B13F0010F05D0054B5B6813B179
:10133000024A5068984703B05DF804FB0000024180
:10134000D800002070B489B006466C460D4D0FCD14
:101350000FC495E80F0084E80F00009BB3420DD046
:10136000314601AB012053F8042B8A4207D00130EB
:101370000828F8D1002009B070BC70470020C0B226
:10138000F9E700BF5820000010B58469237E13F0F0
:10139000010F03D0A37D13F0010F12D1237E13F0B0
:1013A000020F03D0A37D13F0020F0FD1237E13F0A1
:1013B000040F15D0638B03F0370363B1FF236383FE
:1013C00010BD012323750368984710BD02232375C0
:1013D0008368984710BDA16A4368C9B2984710BD99
:1013E000237EDB0900D110BD80232376C368984794
:1013F000638B9BB26383F6E708B5034B9847800085
:101400002E3000F0FE0008BD45130000C36913F044
:10141000010F09D1036843F002030360C36913F0AD
:10142000030FFBD1002070476FF0030070470000EE
:1014300010B50446214B9847042805D040F26B2292
:101440001F4900201F4B9847E36913F0010F19D182
:10145000E36913F0030FFBD1236813F0020F0BD0E5
:10146000236823F002032360E36913F0030FFBD129
:10147000E36913F0020FFBD105232360E36913F046
:10148000030FFBD1E36913F0010FFBD10E4B236077
:10149000E36913F0030FFBD14FF440336360E3695A
:1014A00013F01F0FFBD1094BA3604FF22B63A381F5
:1014B0000020A07384F8300010BD00BF4513000069
:1014C00090200000250E0000040010400200700073
:1014D00070B50D460646CB221849003018BF0120D2
:1014E000174B98472846174B9847044608B12046A3
:1014F00070BDB561B5F1864F04BF134B1E60284621
:10150000124B9847011DC9B2012500F01F0205FAD0
:1015100002F243099B0003F1604303F56143C3F802
:101520008020BFF34F8FBFF36F8FC3F880211A6005
:101530000130C0B28142E8D1D9E700BF902000005D
:10154000250E0000311400004C000020F9130000AB
:101550008269136843F002031360D36913F0030F29
:10156000FBD17047836999627047836901229A753C
:101570007047836902229A757047000070B50C4667
:101580001646054640F22B221549003018BF0120AF
:10159000144B984714F0FD0F0DD1AB692EB9012201
:1015A0001A75AB6902221A7570BD01229A75AB6972
:1015B00002229A7570BD012C02D0032C08D070BD98
:1015C000AB6916B904221A7570BD04229A7570BDF4
:1015D000AB6916B180229A75F1E780221A7570BD49
:1015E00090200000250E000008B5024B1868024B41
:1015F000984708BD4C0000208913000008B5024B35
:101600001868024B984708BD4C0000208913000061
:1016100008B5024B1868024B984708BD4C000020E3
:101620008913000008B5024B1868024B984708BDA3
:101630004C0000208913000038B505460C460846CA
:10164000364B984760B1002D55D040F68112344991
:10165000201C18BF0120334B98476FF00C0038BD99
:10166000002D51D140F681122D4900202D4B984775
:10167000E36913F0010F19D1E36913F0030FFBD1F4
:10168000236813F0020F0BD0236823F002032360BA
:10169000E36913F0030FFBD1E36913F0020FFBD1F1
:1016A0000D232360E36913F0030FFBD1E36913F00B
:1016B000010FFBD12C6040F62E121949201C18BFD7
:1016C0000120184B9847184B2360E36913F0030F70
:1016D000FBD14FF400336360E36913F0170FFBD1C4
:1016E000FE232373002084F8300001232B7140F285
:1016F000FF13EB8038BD40F6811209490020094BE9
:1017000098476FF00C0038BD40F681120449201C48
:1017100018BF0120034B9847AAE700BF45130000FC
:1017200090200000250E00000C00200010B504469B
:1017300060B10068003018BF01204FF41E620449F8
:10174000044B98472068044B984710BD0020F4E7ED
:1017500090200000250E00000D1400002DE9F84334
:1017600081460E460468D1F800804D680779A8B11B
:10177000201C18BF012040F6E5222E492E4B984729
:10178000E36913F0070F34D1E06910F00300FBD1D7
:10179000236813F0020F30D0024608E00020EAE789
:1017A000013213F0800F12D1B36883421ED9237E19
:1017B000DBB213F0040F24D0A16A002DF0D0297001
:1017C000012F91BF0135090A69700235E8E74FF62C
:1017D000FF736383802323766FF01200237E13F060
:1017E000030FFBD003232376BDE8F8839342DED8B2
:1017F000F4E76FF00300BDE8F8836FF01300BDE875
:10180000F8839042CDD813F0010FCAD0B9F8061072
:10181000B8F1000F0BD098F80010012F91BF08F11C
:10182000010898F801E041EA0E2108F102080130B0
:10183000A162B6E790200000250E0000034B6FF078
:101840007F425A6005221A60704700BF10E000E036
:101850000B0E03B330B45D1EEDB22846124A6FF092
:101860007F4454609460136813F4803FFBD00138C8
:10187000C0B2FF28F5D1A5EB056501F17F4101312B
:101880002944094B596099601A46136813F4803F44
:10189000FBD030BC7047044B596099601A461368FE
:1018A00013F4803FFBD0704710E000E070B588B0C3
:1018B00006466C46114D0FCD0FC495E80F0084E825
:1018C0000F00009BB34213D0304601AA012352F807
:1018D000041B81420DD00133082BF8D14FF49E72C6
:1018E00007490020074B98474FF0FF3008B070BD04
:1018F0000023DBB2072BF1D10020F7E7AC2000007A
:10190000E0200000250E000070B506460C46084693
:10191000604B98470546F4608D225F4901205F4B7C
:101920009847236913F0010F19D1236913F0030FAE
:10193000FBD1236813F0020F0BD0236823F00203BE
:101940002360236913F0030FFBD1236913F0020F07
:10195000FBD101232360236913F0030FFBD123691B
:1019600013F0010FFBD105EB85034D4A02EB830316
:101970005A6A2260236913F0030FFBD105EB85033C
:10198000474901EB830393F82A10E1731B8DE38031
:101990000123237302F00C02082A48D0002A58D1F0
:1019A00005EB85033E4A02EB83039B8DA3832369EA
:1019B00013F0C00FFBD10023E383236913F0C00FA2
:1019C000FBD101236372374B9C4204BF364B1E6030
:1019D00005EB8503324A02EB8303B3F92230002B77
:1019E00023DB5A0903F01F03012101FA03F320321C
:1019F0002E4941F82230BFF34F8FBFF36F8F05EBB5
:101A00008505274B03EB8505B5F92230002B0CDB50
:101A1000590903F01F03012202FA03F3234A01F1DB
:101A2000600042F8203042F82130002070BD05EB04
:101A300085031B4A02EB8303DB6AE361236913F02E
:101A4000C00FFBD100232362236913F0C00FFBD129
:101A5000B7E7042AB5D105EB8503114A02EB8303EE
:101A600093F82C302377236913F0C00FFBD10023A8
:101A70006377236913F0C00FFBD105EB8503084A98
:101A800002EB830393F82B30E376236913F0200FE6
:101A9000FBD196E7AD180000E0200000250E000005
:101AA000AC200000001800435000002000E100E0DE
:101AB000C268136843F002031360136913F0030F45
:101AC000FBD17047C268136913F0030FFBD1106894
:101AD000C0F34000704700207047000010B5C06898
:101AE000094B9847044640F20F1208490120084B61
:101AF000984704EB8404074B03EB840494F822001A
:101B0000054B984710BD00BFAD180000E020000055
:101B1000250E0000AC200000850F000008B5064B24
:101B20001868C3689A7A12F0010F00D108BD01222B
:101B30009A7203689847F9E7500000200222024B8E
:101B4000C3F89C20704700BF008000417047000030
:101B500010B5074C074A01212046074B9847074913
:101B60002046074B98472046064B984710BD00BFBC
:101B70006C0000203D1B0000B10D0000EC000020B7
:101B8000890D00005D0D000010B5074964238B60CE
:101B9000064BCB6001230B74054C2046054B984740
:101BA0002046054B984710BDF40000204D1B000057
:101BB000BC000020750A0000390A000008B5074B78
:101BC0009847074B9847074B98470D220649074B04
:101BD0001868074B9847074B9847FEE7D10200006B
:101BE000511B0000891B000000000020EC000020B9
:101BF00099070000691D000000B583B0074B93E80A
:101C000003000090ADF8041006226946044B1868E2
:101C1000044B984703B05DF804FB00BFF4200000BC
:101C2000EC0000209907000030B583B0054601A8FC
:101C30000C4B98476B090C49DB01CA18C958136A49
:101C400014695C400C405C4001A8084B984705F0C3
:101C50001F05012303FA05F5254214BF184600208D
:101C600003B030BDAD06000000800041BB0600009F
:101C7000430900F01F00012202FA00F031B9DB0134
:101C800003F1824303F5004358617047DB0103F120
:101C9000824303F5004398617047000010B5064980
:101CA0000648074B9847044608B1204610BD034834
:101CB000044B9847F9E700BF0C01002054000020B6
:101CC000F90800001908000008B50A460146024B51
:101CD0001868024B984708BD0C01002099070000C6
:101CE00008B502494020024B984708BDF91B000087
:101CF0005907000000B583B002A901F8010D0122C7
:101D00008020074B98479DF807302BB10222054BE6
:101D10001A7003B05DF804FB0122024B1A70F8E759
:101D2000951E0000E800002000B583B002A901F86C
:101D3000010D01229D20024B984703B05DF804FB82
:101D4000951E000000B583B002A901F8010D044BF7
:101D5000187001228A20034B984703B05DF804FBFA
:101D6000F0000020951E000010B50F4B98470F4B58
:101D700098470F4B98470F4B984700200E4B9847BA
:101D80000E4B984701200E4B984701200D4B1870C1
:101D90000D4B984734214FF4E8600C4CA047442188
:101DA00040F24170A04710BDD11D0000011E00008F
:101DB000F51D0000411E0000F51C0000411F000041
:101DC000291D0000E8000020451D0000311F000013
:101DD00008B501215220044B9847044B98476420D2
:101DE000034B984708BD00BF711C00009D1C0000FC
:101DF000DD06000008B5014B984708BDE11C000056
:101E000030B583B001A80A4B98471420094CA0476D
:101E100000215320084DA8473220A047012153201C
:101E2000A8471420A04701A8044B984703B030BD31
:101E3000AD060000DD060000711C0000BB060000BE
:101E400030B583B001A80E4B9847C0238DF8003001
:101E500000218DF8011052200A4CA047022168464B
:101E6000094B984701215220A0475425074C28468A
:101E7000A0470028FBD101A8054B984703B030BD0F
:101E8000AD060000711C0000C91C0000291C0000E8
:101E9000BB060000F0B583B00E4617468DF807006C
:101EA00054250B4C2846A0470028FBD10021522086
:101EB000084CA04701210DF10700074DA847F9B2D2
:101EC0003046A84701215220A04703B0F0BD00BF13
:101ED000291C0000711C0000C91C0000F0B585B071
:101EE0000E461746ADF8060054250E4C2846A0476E
:101EF0000028FBD1002152200B4DA84704A80D2338
:101F000000F8013D0121094CA04702210DF1060016
:101F1000A047F9B23046A04701215220A84705B09A
:101F2000F0BD00BF291C0000711C0000C91C00008E
:101F300008B50122014B984708BD00BFDD1E000017
:101F40007047000070B50D4E0D4CA41BA410002569
:101F5000A54209D10B4E0C4C00F0D0F8A41BA410E4
:101F60000025A54205D170BD56F8253098470135AA
:101F7000EEE756F8253098470135F2E708210000D2
:101F800008210000082100000C2100002E2E2F68DF
:101F9000616C2F7372632F68616C5F696F2E6300D1
:101FA0002E2E2F68616C2F7372632F68616C5F73C4
:101FB00070695F6D5F73796E632E63002E2E2F68DC
:101FC000616C2F7372632F68616C5F74696D6572E9
:101FD0002E6300002E2E2F68616C2F7372632F68A2
:101FE000616C5F75736172745F6173796E632E6388
:101FF000000000002E2E2F68616C2F7574696C73C1
:102000002F7372632F7574696C735F6C6973742EB0
:10201000630000002E2E2F68616C2F7574696C733D
:102020002F7372632F7574696C735F72696E676268
:1020300075666665722E63000000000040000000B7
:102040002E2E2F68706C2F6569632F68706C5F652A
:1020500069632E630000000000300040003400403F
:102060000020014100400141000000430004004302
:1020700000080043000C00430000000000000000C6
:102080000000000000000000000000000000000050
:102090002E2E2F68706C2F736572636F6D2F6870B2
:1020A0006C5F736572636F6D2E63000000380040D3
:1020B000003C004000A0014100C00141001400426A
:1020C000001800420014004300180043070072008B
:1020D000080300000000000070170000000000006E
:1020E0002E2E2F68706C2F74632F68706C5F746372
:1020F0002E63000053656E74210A0000F8B500BF1E
:10210000F8BC08BC9E46704789020000F8B500BFC5
:0C211000F8BC08BC9E4670476502000049
:10211C0048656C6C6F20576F726C64210A0000006C
:00000001FF
