S019000050696E6720506F6E67204578616D706C652E73726563DD
S1130000C0000120E1020000DD020000DD0200006A
S1130010DD020000DD020000DD020000000000003F
S1130020000000000000000000000000DD020000ED
S1130030DD02000000000000DD020000DD0200001F
S1130040DD020000DD020000DD020000DD02000030
S1130050DD020000DD020000DD020000DD02000020
S1130060DD020000DD020000DD020000DD02000010
S1130070510E0000DD020000DD020000DD02000080
S1130080DD020000DD020000DD020000DD020000F0
S1130090DD020000DD020000DD020000DD020000E0
S11300A0DD020000DD020000DD020000DD020000D0
S11300B0DD020000DD020000DD020000DD020000C0
S11300C0DD020000DD020000DD020000DD020000B0
S11300D0DD020000DD020000DD020000DD020000A0
S11300E0DD020000DD02000000000000000000004E
S11300F00000000085100000DD020000DD020000A9
S1130100DD020000DD020000DD020000DD0200006F
S1130110DD020000DD020000DD020000DD0200005F
S1130120DD020000DD020000DD020000DD0200004F
S1130130DD020000DD020000DD020000DD0200003F
S1130140DD020000DD020000DD020000DD0200002F
S1130150DD020000DD020000DD020000DD0200001F
S1130160DD020000DD020000DD020000DD0200000F
S1130170DD020000DD0200000000000000000000BD
S1130180DD020000DD020000DD020000DD020000EF
S113019000000000DD020000DD020000DD020000BE
S11301A0DD020000DD020000DD020000DD020000CF
S11301B0DD020000DD020000DD020000DD020000BF
S11301C0DD020000DD020000DD020000DD020000AF
S11301D0DD020000DD020000DD020000DD0200009F
S11301E0DD020000DD020000DD020000DD0200008F
S11301F0DD020000DD020000DD020000DD0200007F
S1130200DD020000DD02000021170000DD02000015
S1130210DD020000DD020000DD020000DD0200005E
S1130220DD020000DD020000DD020000DD0200004E
S1130230DD020000DD020000DD020000DD0200003E
S1130240DD020000DD020000DD020000DD0200002E
S1130250DD020000DD020000DD020000DD0200001E
S1130260DD02000010B5054C237833B9044B13B1FB
S11302700448AFF300800123237010BD1000002058
S113028000000000202C00000C4B43B10C480D4929
S113029010B5AFF300800C48036823B910BD0A48B9
S11302A0036833B97047094B002BF7D0BDE8104001
S11302B01847064B002BF5D0184700BF000000007C
S11302C0202C000014000020202C0000000000005E
S11302D008B5014B984708BD89050000FEE70000FA
S11302E008B51C4B1C4A9A4210D01C4B194A9A421E
S11302F00CD2013B9B1A23F0030304331344164925
S113030051F8040B42F8040B9A42F9D1144B154AE4
S11303109A420AD2013B9B1A23F003030433134489
S1130320002142F8041B9342FBD10F4B0F4A22F0E9
S11303307F029A60D3F8882042F47002C3F88820C0
S1130340BFF34F8FBFF36F8F094B9847094B984703
S1130350FEE700BF00000020202C00001000002059
S1130360C00000201000002000ED00E000000000AC
S11303706D2A00009D17000008B54022154BC3F8F4
S11303809020154A536943F480635361134B01224F
S1130390C3F8042102F1804202F50032C3F8282197
S11303A00F4AC3F8282193F8402102F0FB0283F896
S11303B0402193F8402102F0FE0242F0010283F84A
S11303C0402193F8302102F0F00283F83021054BEC
S11303D0984708BD001C0040000800400080004110
S11303E0000002C049070000284B10225A619A609D
S11303F002F180429A624FF04041996293F844209E
S113040002F0FE0242F0010283F8442093F8322005
S113041002F0F00242F0030283F8322020225A61F3
S11304209A6002F180429A62996293F8452002F040
S1130430FE0242F0010283F8452093F8322002F0D4
S11304400F0242F0300283F8322040225A6002F157
S1130450804202F500329A620D4A9A6293F846206D
S113046002F0FB0283F8462093F8462002F0FE02D5
S113047042F0010283F8462093F8332002F0F002A0
S113048042F0030283F83320704700BF008000412C
S1130490000002C0064B4022C3F89C204322C3F84C
S11304A08C20044A536943F480535361704700BF5E
S11304B0001C00400008004008B5044B984704495C
S11304C00448054B9847054B984708BD9504000020
S11304D00030004048000020DD070000E903000070
S11304E0104B93F8C82002F0FE0242F0010283F898
S11304F0C82093F8B42002F0F00242F0030283F81B
S1130500B42093F8C92002F0FE0242F0010283F8FD
S1130510C92093F8B42002F00F0242F0300283F8AD
S1130520B420704700800041064B4022C3F80821E4
S11305304322C3F88C20044A136A43F00103136274
S1130540704700BF001C00400008004008B5054B80
S1130550984700224FF086410348044B9847044BC8
S1130560984708BD2905000060000020050C000024
S1130570E104000008B50248024B984708BD00BFDB
S113058010E000E0DD06000008B53E4B98473E4B06
S11305900222C3F89820C3F8882002F18042C3F8ED
S11305A0A8204FF04041C3F8A81093F8C12002F0EE
S11305B0FE0283F8C1204FF48062C3F81821C3F807
S11305C0082102F18042C3F82821C3F8281193F8C6
S11305D04A2102F0FE0283F84A214FF48022C3F834
S11305E01821C3F808214FF08041C3F82811274A85
S11305F0C3F8282193F8522102F0FE0283F8522115
S11306004FF40022C3F81821C3F80821C3F82811B5
S11306101F4AC3F8282193F8532102F0FE0283F8FD
S113062053214FF48012C3F804211A4AC3F8282135
S113063002F100421032C3F8282193F8542102F049
S1130640FB0283F8542193F8542102F0FE0283F84C
S11306505421114B9847114B9847114B9847114B14
S11306609847114A136A43F04003136240220F4B28
S1130670C3F81C210E4B984702460E490E480F4BF7
S1130680984708BD310D000000800041040000C0FF
S1130690080000C00000024079030000B904000013
S11306A04D0500007505000000080040001C0040D6
S11306B0DB160000001800436C000020110A000043
S11306C0EFF31083036072B6BFF35F8F7047BFF31D
S11306D05F8F036883F310887047000008B5024BEE
S11306E01860024B984708BD2C00002041140000FC
S11306F010B5044B1C68044B984701462046034B35
S1130700984710BD2C000020250D00005514000052
S113071070B50C4B5C68A0420ED0012300211E462C
S1130720FF2503E02B465A18520804D1A042F9D9F8
S11307303BB13146F7E770BD024B1B680BB19847DC
S113074070BD70BD3000002008B5054B4FF0FF327E
S11307505A6000221A600348034B984708BD00BF43
S11307603000002011070000710D000008B50D4B8A
S11307705B68984206D091B10A4B1B6843B16FF095
S11307800C0008BD074B196029B9074B984708BDF1
S1130790044B196058600121034B984708BD6FF062
S11307A00C0008BD30000020290E000070B50D4675
S11307B01646044660B1081C18BF012034220549BE
S11307C0054B98472368324629462046984770BD12
S11307D00020F3E7B42A0000A10C000038B50D4650
S11307E00446B8B1081C18BF012040220A490B4B2B
S11307F09847204640F8045F2946094B984700284B
S113080007DB4FF40043A382064B2361064BE360EE
S1130810002038BD0020E8E7C82A0000A10C000031
S11308203D120000D10800009508000010B50446F0
S113083057220549003018BF0120044B9847201D5A
S1130840034B984710BD00BFC82A0000A10C00004C
S11308503113000030B585B00C46054690B1081C34
S113086018BF0120B3220849084B98472368019315
S113087063680293A368039301A9281D044B984756
S113088005B030BD0020EDE7C82A0000A10C00002F
S11308906113000070B584B00E4615460446A322C9
S11308A00849003018BF0120074B984700230293E2
S11308B00196039501A9A4F10C00044B984704B0D8
S11308C070BD00BFC82A0000A10C0000550800003C
S11308D070B584B00E461546044687220849003098
S11308E018BF0120074B98470296002301930395F4
S11308F001A9A4F10C00044B984704B070BD00BFDB
S1130900C82A0000A10C00005508000038B50D46A7
S1130910044650B1081C18BF0120BD220449054BF0
S113092098470C342C60002038BD0020F5E700BF48
S1130930C82A0000A10C0000F8B5844607682FB14E
S11309408D683C460026C2F1010E0BE00E4B984721
S1130950F8BD7344A0680344AB420AD22368264618
S113096053B11C4663689342F3D8A06803449B1AAE
S1130970F2E7A74204D034462046044B9847F8BD1A
S11309806046014B9847F8BDC90C0000F50C000007
S11309902DE9F0474469076901370761037E13F0C5
S11309A0010F13D1037E13F0020F0FD154B3636808
S11309B0FB1AA268934207D3064600F11408DFF835
S11309C04890DFF848A012E0BDE8F087037E43F0CA
S11309D002030376BDE8F0877569E368204698470B
S11309E085B12C466B68FB1AAA6893420AD3404629
S11309F0C847237C012BEFD167603A462146404625
S1130A00D047E9E7BDE8F087FD0C00003909000094
S1130A1038B50D46044678B1081C18BF01203B22A6
S1130A200649074B984729462046064B984700201D
S1130A302061054B236038BD0020F0E7E42A000064
S1130A40A10C00000D1500009109000010B504462A
S1130A5053220949003018BF0120084B984720460B
S1130A60074B984720B92046064B9847002010BDF5
S1130A706FF0100010BD00BFE42A0000A10C0000BC
S1130A80C9160000B516000070B582B00D460446C4
S1130A9018B3081C18BF01207A221E491E4B984720
S1130AA0237E43F00103237604F1140629463046DD
S1130AB01A4B984798B923696B60226929463046D6
S1130AC0174B9847237E03F0FE032376237E13F00F
S1130AD0020F10D1002002B070BD0020DCE7237E9D
S1130AE003F0FE0323767F220A4900200A4B98472D
S1130AF06FF01100EFE701A80A4B9847237E03F03B
S1130B00FD0323762046084B984701A8074B9847D6
S1130B100020E0E7E42A0000A10C0000A70C00007C
S1130B2039090000C1060000E1160000CF060000EC
S1130B302DE9F8430F469046044628B331B3101C00
S1130B4018BF0120F1221249124B98470834124D64
S1130B502046A8470028FBD0013F0026DFF840903C
S1130B600D4D17F8011F2046C8472046A847002806
S1130B70FBD001364645F4D3084D2046A84700284B
S1130B80FBD03046BDE8F8830020DBE70020D9E73E
S1130B90FC2A0000A10C00001F1200002912000012
S1130BA0111200002DE9F8430F4690460446E0B1C7
S1130BB0E9B1101C18BF01204FF486720D490E4B89
S1130BC09847013F002608340C4DDFF83490204646
S1130BD0A8470028FBD02046C84707F8010F013674
S1130BE04645F4D33046BDE8F8830020E4E700200E
S1130BF0E2E700BFFC2A0000A10C00003312000051
S1130C001712000038B50D46044698B1081C18BFE9
S1130C10012034220849094B9847294604F1080069
S1130C20074B9847034618B9064A6260064A226091
S1130C30184638BD0020ECE7FC2A0000A10C000097
S1130C40D1110000A50B0000310B000010B50446C3
S1130C5053220649003018BF0120054B984704F180
S1130C600800044B9847002010BD00BFFC2A000078
S1130C70A10C0000FD11000038B50C46054648B132
S1130C80081C18BF012069220349044B98472560BA
S1130C90002038BD0020F6E7FC2A0000A10C00006B
S1130CA000B900BE704703684BB18B4209D01B6882
S1130CB01BB19942FBD101207047002070470020EE
S1130CC0704701207047000038B504460D46064BB6
S1130CD0984780F0010039220449C0B2044B984778
S1130CE023682B60256038BDA70C0000182B00007A
S1130CF0A10C000003680B600160704703680BB12E
S1130D001A68026018467047430900F01F00012268
S1130D1002FA00F04033024A42F82300704700BF51
S1130D2000E100E04BF6803303FB00F07047000065
S1130D3010B5094A13889BB21380084B9847084B97
S1130D409847084B98470820074CA047074B9847FB
S1130D5040F6F770A04710BD00400041790F000035
S1130D60990F00006D0F00002D0F00009D0F000073
S1130D702A4B5B6813F0010F1FD1284A536813F004
S1130D80030FFBD1254B1B7813F0020F0DD0234A20
S1130D90137803F0FD031370536813F0030FFBD1B2
S1130DA01E4A536813F0020FFBD101221B4B1A7029
S1130DB01A46536813F0030FFBD1184A536813F013
S1130DC0010FFBD1154A137803F0EF031370536836
S1130DD013F0030FFBD1114B00225A709A609A61F1
S1130DE0012119635A63D9611A621A7842F0020226
S1130DF01A701A46536813F0030FFBD1084B4FF4D3
S1130E008052C3F88020BFF34F8FBFF36F8FC3F8B6
S1130E1080211A60034B18600020704700280040AE
S1130E2000E100E038000020402802D04FF0FF30FD
S1130E30704729B9054B0122DA605A6100207047D6
S1130E400122024B1A610020704700BF00280040B5
S1130E502DE9F04182B0304B5A690192019A5A61EE
S1130E602E4B1868E8222E49003018BF01202D4B64
S1130E709847019B002B4BD04FF0FF36274F2A4D4C
S1130E80DFF8948039E0B6F1FF3F04D000E040265B
S1130E9030463B689847019B012202FA04F423EA96
S1130EA004040194019A92FAA2F3B3FA83F3002A98
S1130EB008BF4FF0FF3318D01C46002BE7D00022A8
S1130EC01346104601219442C7BF0133D8B203F13F
S1130ED0FF33D9B28842D6D80B18C3F3470315F8A9
S1130EE03320A242EFD14026D2E7D8F81430019340
S1130EF0019BC8F81430019B53B1019A92FAA2F3F2
S1130F00B3FA83F3002A08BF4FF0FF33D4D1ECE7E0
S1130F1002B0BDE8F08100BF002800403800002086
S1130F20402B0000A10C0000382B000010F0010F32
S1130F3008D00B4A0B4B1A62194643F6FD724B68F4
S1130F401342FCD110F0080F08D0074A054BDA62AF
S1130F50194643F6FD724B681342FCD1704700BF3B
S1130F6006090100001C0040050901000122014B93
S1130F705A71704700080040064B42F28E029A8272
S1130F8000229A75DA75DA6902F47C52DA61012278
S1130F901A7470470014004070470000364A136A00
S1130FA023F00F0343F004031362114643F6FD726A
S1130FB04B681342FCD1304A536813F0040FFBD141
S1130FC02E4B00221A772E4A9A621A4692F82C3037
S1130FD013F0100FFAD10022284B83F820201A4670
S1130FE092F82C3013F0040FFAD10222234B1A7713
S1130FF01A4692F82C3013F0020FFAD11F4B5A6A9A
S11310005A621A4692F82C3013F0080FFAD1802253
S11310101A4B83F820201A4692F82C3013F0040F50
S1131020FAD1164B93F8203013F0010F1DD0134A58
S1131030136903F41063B3F5106FF9D10E4A5368C2
S1131040002BFCD10C4A136A23F00F0343F0060370
S11310501362114643F6FD724B681342FCD1064AF3
S1131060536813F0040FFBD17047044A136913F457
S1131070807FFBD0E2E700BF001C0040001000406E
S11310800000010400B583B00D4B9B78DBB20193E3
S1131090019B13F0020F06D00A4B1B681BB1084AD0
S11310A05068984709E0019B13F0010F05D0054BE8
S11310B05B6813B1024A5068984703B05DF804FBBB
S11310C0000002418800002070B489B006466C46D6
S11310D00D4D0FCD0FC495E80F0084E80F00009B61
S11310E0B3420DD0314601AB012053F8042B8A42A0
S11310F007D001300828F8D1002009B070BC70472F
S11311000020C0B2F9E700BF582B0000C36913F0F8
S1131110010F09D1036843F002030360C36913F0AC
S1131120030FFBD1002070476FF0030070470000ED
S113113010B50446214B9847042805D040F24722B5
S11311401F4900201F4B9847E36913F0010F19D181
S1131150E36913F0030FFBD1236813F0020F0BD0E4
S1131160236823F002032360E36913F0030FFBD128
S1131170E36913F0020FFBD105232360E36913F045
S1131180030FFBD1E36913F0010FFBD10E4B236076
S1131190E36913F0030FFBD14FF440336360E36959
S11311A013F01F0FFBD1094BA3604FF22B63A381F4
S11311B00020A07384F8300010BD00BFC9100000E7
S11311C0902B0000A10C00000400104002007000ED
S11311D038B50C460546BB220549003018BF01202E
S11311E0044B98472C602046034B984738BD00BFFA
S11311F0902B0000A10C000031110000026813685C
S113120043F002031360D36913F0030FFBD170475B
S11312100368996270470368986AC0B270470368AC
S1131220187E00F0010070470368187EC0F3400088
S113123070470368187EC0F38000704738B50546D0
S11312400C460846364B984760B1002D55D040F601
S11312503C123449201C18BF0120334B98476FF0CF
S11312600C0038BD002D51D140F63C122D49002010
S11312702D4B9847E36913F0010F19D1E36913F07B
S1131280030FFBD1236813F0020F0BD0236823F064
S113129002032360E36913F0030FFBD1E36913F046
S11312A0020FFBD10D232360E36913F0030FFBD17D
S11312B0E36913F0010FFBD12C6040F606121949C3
S11312C0201C18BF0120184B9847184B2360E36972
S11312D013F0030FFBD14FF400336360E36913F0A1
S11312E0170FFBD1FE232373002084F83000012361
S11312F02B7140F2FF13EB8038BD40F63C120949D4
S11313000020094B98476FF00C0038BD40F63C12A2
S11313100449201C18BF0120034B9847AAE700BFCB
S1131320C9100000902B0000A10C00000C0020004C
S113133010B5044660B10068003018BF012040F6C3
S11313409B120449044B98472068044B984710BDEE
S11313500020F4E7902B0000A10C00000D11000008
S11313602DE9F84381460E460468D1F800804D68A3
S11313700779A8B1201C18BF01204FF42A622E4916
S11313802E4B9847E36913F0070F34D1E06910F04E
S11313900300FBD1236813F0020F30D0024608E0AB
S11313A00020EAE7013213F0800F12D1B3688342C0
S11313B01ED9237EDBB213F0040F24D0A16A002DC2
S11313C0F0D02970012F91BF0135090A69700235E7
S11313D0E8E74FF6FF736383802323766FF01200F0
S11313E0237E13F0030FFBD003232376BDE8F88399
S11313F09342DED8F4E76FF00300BDE8F8836FF0A2
S11314001300BDE8F8839042CDD813F0010FCAD081
S1131410B9F80610B8F1000F0BD098F80010012F9E
S113142091BF08F1010898F801E041EA0E2108F1A2
S113143002080130A162B6E7902B0000A10C000065
S1131440034B6FF07F425A6005221A60704700BF59
S113145010E000E00B0E03B330B45D1EEDB228467D
S1131460124A6FF07F4454609460136813F4803F11
S1131470FBD00138C0B2FF28F5D1A5EB056501F119
S11314807F4101312944094B596099601A46136818
S113149013F4803FFBD030BC7047044B5960996013
S11314A01A46136813F4803FFBD0704710E000E045
S11314B070B588B006466C46114D0FCD0FC495E843
S11314C00F0084E80F00009BB34213D0304601AAFA
S11314D0012352F8041B81420DD00133082BF8D1AB
S11314E04FF49E7207490020074B98474FF0FF3096
S11314F008B070BD0023DBB2072BF1D10020F7E761
S1131500AC2B0000E02B0000A10C000070B50646D7
S11315100C460846604B98470546F4608D225F49A7
S113152001205F4B9847236913F0010F19D12369F8
S113153013F0030FFBD1236813F0020F0BD02368C1
S113154023F002032360236913F0030FFBD1236903
S113155013F0020FFBD101232360236913F0030F5F
S1131560FBD1236913F0010FFBD105EB85034D4A31
S113157002EB83035A6A2260236913F0030FFBD141
S113158005EB8503474901EB830393F82A10E173C4
S11315901B8DE3800123237302F00C02082A48D038
S11315A0002A58D105EB85033E4A02EB83039B8D49
S11315B0A383236913F0C00FFBD10023E3832369C2
S11315C013F0C00FFBD101236372374B9C4204BF5D
S11315D0364B1E6005EB8503324A02EB8303B3F9F5
S11315E02230002B23DB5A0903F01F03012101FAE7
S11315F003F320322E4941F82230BFF34F8FBFF35B
S11316006F8F05EB8505274B03EB8505B5F9223074
S1131610002B0CDB590903F01F03012202FA03F328
S1131620234A01F1600042F8203042F821300020C2
S113163070BD05EB85031B4A02EB8303DB6AE361A0
S1131640236913F0C00FFBD100232362236913F035
S1131650C00FFBD1B7E7042AB5D105EB8503114AC6
S113166002EB830393F82C302377236913F0C00F24
S1131670FBD100236377236913F0C00FFBD105EB83
S11316808503084A02EB830393F82B30E37623693E
S113169013F0200FFBD196E7B1140000E02B0000FB
S11316A0A10C0000AC2B0000001800433C000020FB
S11316B000E100E0C268136843F002031360136999
S11316C013F0030FFBD17047C268136913F0030FC3
S11316D0FBD11068C0F34000704700207047000041
S11316E010B5C068094B9847044640F20F120849E8
S11316F00120084B984704EB8404074B03EB840454
S113170094F82200054B984710BD00BFB1140000A7
S1131710E02B0000A10C0000AC2B0000090D000020
S113172008B5064B1868C3689A7A12F0010F00D105
S113173008BD01229A7203689847F9E73C0000202B
S11317407047000010B5044C04492046044B9847E8
S11317502046044B984710BD600000209C000020E8
S1131760790C00004D0C000010B5074964238B6010
S1131770064BCB6001230B74054C2046054B984760
S11317802046054B984710BDA400002041170000D7
S11317906C000020890A00004D0A000000B583B0E7
S11317A0104B9847104B9847104B98470D221049FF
S11317B0104B1868104B9847104B984720230193FF
S11317C0002400940123072206210D480D4DA8474B
S11317D023462246022108460B4DA84720460B4BC0
S11317E09847FEE7D1020000451700006917000082
S11317F0000000209C000020AD070000F11900004B
S113180000A1BC33391F0000911B0000CD1A000059
S113181070B584B002240F4BC3F89C400E4A01AB50
S113182007CA03C31A800D4E0A2201A930680C4D61
S1131830A8470422114668460A4B98470422694681
S11318403068A8472046084B98470020074B984724
S113185004B070BD00800041F42B00009C00002007
S1131860AD070000D51E0000151F0000CD1A0000B2
S113187030B583B0054601A80C4B98476B090C4959
S1131880DB01CA18C958136A14695C400C405C40F7
S113189001A8084B984705F01F05012303FA05F535
S11318A0254214BF1846002003B030BDC106000015
S11318B000800041CF060000430900F01F00012210
S11318C002FA00F031B9DB0103F1824303F500436E
S11318D058617047DB0103F1824303F500439861CB
S11318E07047000010B506490648074B9847044660
S11318F008B1204610BD0348044B9847F9E700BFE0
S1131900BC000020480000200D0900002D08000044
S113191008B50A460146024B1868024B984708BDB1
S1131920BC000020AD070000B0B584B000AFCB1DF3
S113193023F00703ADEB030D6D4631B16B466C1814
S1131940002203F8012BA342FBD17D60B860F9604B
S1131950391D0348034B98471037BD46B0BD00BF3F
S1131960480000205508000008B502494020024BF9
S1131970984708BD111800006D07000000B583B03A
S113198002A901F8010D01228020074B98479DF818
S113199007302BB10222054B1A7003B05DF804FB2B
S11319A00122024B1A70F8E77D2000009800002005
S11319B000B583B002A901F8010D01229D20024B5C
S11319C0984703B05DF804FB7D20000000B583B0A8
S11319D002A901F8010D044B187001228A20034B5F
S11319E0984703B05DF804FBA00000207D200000B0
S11319F010B582B0134B9847134B9847134B984735
S1131A00134B98470020134B9847134B98470120DA
S1131A10124B98470120124B1870124B984714230D
S1131A208DF8073024238DF806300DF107014FF4AB
S1131A30E8600D4CA0470DF1060140F24170A0474B
S1131A4002B010BDB91F0000E91F0000DD1F000037
S1131A50292000007D19000095220000B119000022
S1131A6098000020CD1900009121000000B583B03A
S1131A70030A8DF804308DF80500064B1B7813B16A
S1131A8003B05DF804FB022201A940F2BC60024BE2
S1131A909847F5E7A00000202921000000B583B095
S1131AA0030A8DF804308DF80500064B1B7813B13A
S1131AB003B05DF804FB022201A940F2BE60024BB0
S1131AC09847F5E7A00000202921000000B583B065
S1131AD00522094B1A70030C8DF80430030A8DF8A3
S1131AE005308DF80600032201A98220034B984794
S1131AF003B05DF804FB00BF980000207D200000C7
S1131B0000B583B01C4B984212D81C4B98421DD888
S1131B101B4B984221D81B4B984225D81A4B98420C
S1131B200CD96B238DF804306F238DF8053005E054
S1131B30E1238DF80430E9238DF80530022201A950
S1131B409820124B984703B05DF804FBD7238DF817
S1131B500430D8238DF80530F0E7C1238DF8043024
S1131B60C5238DF80530E9E775238DF8043081230A
S1131B708DF80530E2E700BF00E9A43580F8A9320A
S1131B808044E52D000B6B1B40FC54197D200000A4
S1131B9010B582B0040A8DF800408DF80100080ADF
S1131BA08DF802008DF80310110A8DF804108DF8D9
S1131BB005201A0A8DF806208DF807300822694698
S1131BC01046024B984702B010BD00BF7D200000B4
S1131BD010B582B00446164B1B78E3B12046154B72
S1131BE0984711A3D3E90023134CA047134B9847FC
S1131BF0030E8DF80430030C8DF80530030A8DF8BC
S1131C0006308DF8070004220DEB020186200C4BF0
S1131C10984702B010BD0B4B98470122044B1A7031
S1131C20DCE700BFAFF30080000000008084EE3FDB
S1131C30400000201D2500005D2800002D2A000022
S1131C407D200000011B0000F0B583B00446002392
S1131C50009301930078404B1B78834201D03F4BA3
S1131C609847237863B1012B4BD1637C0A2B38D876
S1131C70DFE803F0656565575049353765655E00F3
S1131C80374F6068B847374E02460B462EA1D1E95C
S1131C900001B0470022344B344DA847344DA847C7
S1131CA0030C8DF80030030A8DF801308DF8020022
S1131CB0237B8DF80330637B8DF80430A068B8472C
S1131CC023A3D3E90023B047A847030C8DF80530BC
S1131CD0030A8DF806308DF8070008220DE0002273
S1131CE0E274227C8DF800208DF80130A37C8DF8FD
S1131CF00230E37C8DF80330042269468B201D4BAF
S1131D00984703B0F0BD227C0C2A0CBF01220022AC
S1131D10E274E6E7227C0A2A8CBF01220022E274E4
S1131D20DFE7227C092A8CBF01220022E274D8E773
S1131D30227C082A8CBF01220022E274D1E701220E
S1131D40E274CEE7AFF300800000000080847E419F
S1131D50000000008084EE3FA0000020CD190000A8
S1131D601D2500005D2800000000404009260000F9
S1131D702D2A00007D20000010B584B00446002305
S1131D80019302938DF80C3000782E4B1B7883421C
S1131D9001D02D4B98472378ABB1012B3CD1A389BB
S1131DA01A0A8DF804208DF80530A37B8DF80630CF
S1131DB0E37B8DF80730237C8DF80830637C8DF845
S1131DC00930062224E0637AF12B27D0F22B2FD09E
S1131DD01A466388DB009BB26380190A8DF80410ED
S1131DE08DF8053023798DF806306379DB008DF8A2
S1131DF00730A3798DF80830E3798DF80930237A18
S1131E008DF80A308DF80B20A37A8DF80C30092256
S1131E1001A98C200D4B984704B010BD4FF6FF70FC
S1131E200B4B984748F205000A4B98470222D0E72B
S1131E3041F60F50064B984741F22100054B984755
S1131E400622C6E7A0000020CD1900007D20000076
S1131E506D1A00009D1A000000B583B08DF80400CF
S1131E608DF80510022201A98F20024B984703B078
S1131E705DF804FB7D20000030B583B005460C46B8
S1131E80022201A91320104B984702A9002301F84C
S1131E90053D40F204700D4B98470D4B1B78012B08
S1131EA007D09DF804302B709DF80530237003B0E3
S1131EB030BD9DF80330DB09F3D0294640F20270AF
S1131EC0024B9847F0E700BFC52000001D22000028
S1131ED0A000002030B585B0054614468DF80710E3
S1131EE004A9002301F8013D0DF10700074B9847B1
S1131EF09DF80720A24202D9012005B030BD294631
S1131F009DF80F00024B98470020F6E7791E000069
S1131F102D22000000B583B0030A8DF804308DF83B
S1131F200500022201A91046024B984703B05DF850
S1131F3004FB00BF7D200000F0B58DB005460E46C1
S1131F4017461C460120174B98472846164B9847BE
S1131F500A210846154B984701258DF81C508DF829
S1131F6018708DF819608DF81A4000248DF81B4004
S1131F70069B0B9307A80E4B98478DF80450082333
S1131F80ADF810308DF812409DF84C308DF81330B8
S1131F908DF814408DF8154001A8064B98470DB0F4
S1131FA0F0BD00BFCD190000D11B0000591E000078
S1131FB0491C0000791D000008B501215220044B82
S1131FC09847044B98476420034B984708BD00BFCB
S1131FD0B9180000E5180000F106000008B5014B2F
S1131FE0984708BD6919000030B583B001A80A4BB1
S1131FF098471420094CA04700215320084DA847B6
S11320003220A04701215320A8471420A04701A84B
S1132010044B984703B030BDC1060000F106000030
S1132020B9180000CF06000030B583B001A80E4BEC
S11320309847C0238DF8003000218DF801105220FC
S11320400A4CA04702216846094B984701215220B7
S1132050A0475425074C2846A0470028FBD101A8D7
S1132060054B984703B030BDC1060000B918000005
S11320701119000071180000CF060000F0B583B0FC
S11320800E4617468DF8070054250B4C2846A047EA
S11320900028FBD100215220084CA04701210DF15A
S11320A00700074DA847F9B23046A847012152203E
S11320B0A04703B0F0BD00BF71180000B9180000BC
S11320C011190000F0B585B00E4617468DF80700CB
S11320D05425114C2846A0470028FBD1002152204A
S11320E00E4B984701210DF107000D4B98479DF8C1
S11320F00730C02B06D004A8002300F8013D0121BD
S1132100074B9847F9B23046064B984701215220B5
S1132110024B984705B0F0BD71180000B9180000D3
S113212011190000291900002DE9F04182B006467A
S11321300F4690465425134C2846A0470028FBD14F
S113214000215220104DA847330A8DF807308DF82E
S1132150066002A80D2300F8033D01210B4CA047A3
S113216001210DF10700A04701210DF10600A04750
S11321705FFA88F13846A04701215220A84702B0EF
S1132180BDE8F08171180000B918000011190000B1
S113219008B50122014B984708BD00BF2921000062
S11321A02DE9F04182B006460F4690465425174C5F
S11321B02846A0470028FBD100215220144DA847EF
S11321C0330A8DF807308DF8066000238DF805304A
S11321D002A81D2300F8043D01210E4CA047012153
S11321E00DF10700A04701210DF10600A0470121D0
S11321F00DF10500A0475FFA88F13846064B984771
S113220001215220A84702B0BDE8F08171180000F6
S1132210B9180000111900002919000008B501229D
S1132220014B984708BD00BFA1210000F0B585B05F
S11322300E4617468DF807005425124C2846A04731
S11322400028FBD1002152200F4DA8471E238DF8F2
S11322500F3000238DF80E3001210DF10F000B4CCF
S1132260A04701210DF10700A04701210DF10E0047
S1132270A04739463046064B984701215220A847CB
S113228005B0F0BD71180000B91800001119000064
S1132290291900007047000081F0004102E000BFEE
S11322A083F0004330B54FEA41044FEA430594EA12
S11322B0050F08BF90EA020F1FBF54EA000C55EA4D
S11322C0020C7FEA645C7FEA655C00F0E2804FEA1E
S11322D05454D4EB5555B8BF6D420CDD2C4480EA00
S11322E0020281EA030382EA000083EA010180EA30
S11322F0020281EA0303362D88BF30BD11F0004F7E
S11323004FEA01314FF4801C4CEA113102D04042B3
S113231061EB410113F0004F4FEA03334CEA1333EE
S113232002D0524263EB430394EA050F00F0A78006
S1132330A4F10104D5F1200E0DDB02FA0EFC22FA01
S113234005F2801841F1000103FA0EF2801843FAF5
S113235005F359410EE0A5F120050EF1200E012AE6
S113236003FA0EFC28BF4CF0020C43FA05F3C01824
S113237051EBE37101F0004507D54FF0000EDCF19D
S1132380000C7EEB00006EEB0101B1F5801F1BD346
S1132390B1F5001F0CD349085FEA30004FEA3C0C4A
S11323A004F101044FEA445212F5800F80F09A8040
S11323B0BCF1004F08BF5FEA500C50F1000041EB44
S11323C0045141EA050130BD5FEA4C0C404141EB48
S11323D0010111F4801FA4F10104E9D191F0000F6F
S11323E004BF01460020B1FA81F308BF2033A3F1F2
S11323F00B03B3F120020CDA0C3208DD02F1140CE9
S1132400C2F10C0201FA0CF021FA02F10CE002F123
S11324101402D8BFC2F1200C01FA02F120FA0CFC1C
S1132420DCBF41EA0C019040E41AA2BF01EB045165
S1132430294330BD6FEA04041F3C1CDA0C340EDC63
S113244004F11404C4F1200220FA04F001FA02F3A6
S113245040EA030021FA04F345EA030130BDC4F164
S11324600C04C4F1200220FA02F001FA04F340EA59
S11324700300294630BD21FA04F0294630BD94F00A
S1132480000F83F4801306BF81F480110134013DF1
S11324904EE77FEA645C18BF7FEA655C29D094EA62
S11324A0050F08BF90EA020F05D054EA000C04BFE0
S11324B01946104630BD91EA030F1EBF00210020CB
S11324C030BD5FEA545C05D14000494128BF41F06A
S11324D0004130BD14F580043CBF01F5801130BDCE
S11324E001F0004545F0FE4141F470014FF0000059
S11324F030BD7FEA645C1ABF194610467FEA655C0A
S11325001CBF0B46024650EA013406BF52EA0335AB
S113251091EA030F41F4002130BD00BF90F0000F99
S113252004BF0021704730B54FF4806404F13204D5
S11325304FF000054FF0000150E700BF90F0000F8E
S113254004BF0021704730B54FF4806404F13204B5
S113255010F0004548BF40424FF000013EE700BF85
S113256042004FEAE2014FEA31014FEA02701FBF15
S113257012F07F4393F07F4F81F06051704792F0E7
S1132580000F14BF93F07F4F704730B54FF4607461
S113259001F0004521F0004120E700BF50EA0102AC
S11325A008BF704730B54FF000050AE050EA010259
S11325B008BF704730B511F0004502D5404261EBC9
S11325C041014FF4806404F132045FEA915C3FF40A
S11325D0DCAE4FF003025FEADC0C18BF03325FEAA3
S11325E0DC0C18BF033202EBDC02C2F1200300FA58
S11325F003FC20FA02F001FA03FE40EA0E0021FA7D
S113260002F11444C1E600BF70B54FF0FF0C4CF466
S1132610E06C1CEA11541DBF1CEA135594EA0C0F1C
S113262095EA0C0F00F0DEF82C4481EA030621EA57
S11326304C5123EA4C5350EA013518BF52EA033592
S113264041F4801143F4801338D0A0FB02CE4FF044
S11326500005E1FB02E506F00042E0FB03E54FF074
S11326600006E1FB03569CF0000F18BF4EF0010E6C
S1132670A4F1FF04B6F5007F64F5407404D25FEA68
S11326804E0E6D4146EB060642EAC62141EA55511B
S11326904FEAC52040EA5E504FEACE2EB4F1FD0C5D
S11326A088BFBCF5E06F1ED8BEF1004F08BF5FEADB
S11326B0500E50F1000041EB045170BD06F000468D
S11326C046EA010140EA020081EA0301B4EB5C043A
S11326D0C2BFD4EB0C0541EA045170BD41F4801132
S11326E04FF0000E013C00F3AB8014F1360FDEBF57
S11326F0002001F0004170BDC4F10004203C35DA33
S11327000C341BDC04F11404C4F1200500FA05F3B5
S113271020FA04F001FA05F240EA020001F0004256
S113272021F0004110EBD37021FA04F642EB0601CC
S11327305EEA430E08BF20EAD37070BDC4F10C04F6
S1132740C4F1200500FA04F320FA05F001FA04F2BA
S113275040EA020001F0004110EBD37041F10001A6
S11327605EEA430E08BF20EAD37070BDC4F12005B1
S113277000FA05F24EEA020E20FA04F301FA05F219
S113278043EA020321FA04F001F0004121FA04F2C1
S113279020EA020000EBD3705EEA430E08BF20EA91
S11327A0D37070BD94F0000F0FD101F000464000CB
S11327B041EB010111F4801F08BF013CF7D041EA4D
S11327C0060195F0000F18BF704703F00046520051
S11327D043EB030313F4801F08BF013DF7D043EA22
S11327E00603704794EA0C0F0CEA135518BF95EAD8
S11327F00C0F0CD050EA410618BF52EA4306D1D15F
S113280081EA030101F000414FF0000070BD50EA7D
S1132810410606BF1046194652EA430619D094EA07
S11328200C0F02D150EA013613D195EA0C0F05D1F1
S113283052EA03361CBF104619460AD181EA030145
S113284001F0004141F0FE4141F470014FF00000FD
S113285070BD41F0FE4141F4780170BD70B54FF098
S1132860FF0C4CF4E06C1CEA11541DBF1CEA135518
S113287094EA0C0F95EA0C0F00F0A7F8A4EB0504FA
S113288081EA030E52EA03354FEA013100F08880F1
S11328904FEA03334FF0805545EA131343EA1263BA
S11328A04FEA022245EA111545EA10654FEA00266F
S11328B00EF000419D4208BF964244F1FD0404F528
S11328C0407402D25B084FEA3202B61A65EB030584
S11328D05B084FEA32024FF480104FF4002CB6EB41
S11328E0020E75EB030E22BFB61A754640EA0C00C1
S11328F05B084FEA3202B6EB020E75EB030E22BF01
S1132900B61A754640EA5C005B084FEA3202B6EB41
S1132910020E75EB030E22BFB61A754640EA9C0000
S11329205B084FEA3202B6EB020E75EB030E22BFD0
S1132930B61A754640EADC0055EA060E18D04FEA8E
S1132940051545EA16754FEA06164FEAC30343EA2E
S113295052734FEAC2025FEA1C1CC0D111F4801FFB
S11329600BD141EA00014FF000004FF0004CB6E7F4
S113297011F4801F04BF01430020B4F1FD0C88BF93
S1132980BCF5E06F3FF6AFAEB5EB030C04BFB6EB9E
S1132990020C5FEA500C50F1000041EB045170BD91
S11329A00EF0004E4EEA113114EB5C04C2BFD4EBBE
S11329B00C0541EA045170BD41F480114FF0000E42
S11329C0013C90E645EA060E8DE60CEA135594EABE
S11329D00C0F08BF95EA0C0F3FF43BAF94EA0C0FC1
S11329E00AD150EA01347FF434AF95EA0C0F7FF436
S11329F025AF104619462CE795EA0C0F06D152EA8A
S1132A0003353FF4FDAE1046194622E750EA41066D
S1132A1018BF52EA43067FF4C5AE50EA41047FF47E
S1132A200DAF52EA43057FF4EBAE12E74A0011D230
S1132A3012F5001211D20DD56FF47873B3EB625214
S1132A400ED44FEAC12343F0004343EA505323FA20
S1132A5002F070474FF00000704750EA013002D195
S1132A604FF0FF3070474FF00000704770B50D4EC7
S1132A700D4CA41BA4100025A54209D10B4E0C4CEF
S1132A8000F0BEF8A41BA4100025A54205D170BD1A
S1132A9056F8253098470135EEE756F82530984723
S1132AA00135F2E70C2C00000C2C00000C2C00006B
S1132AB0102C00002E2E2F68616C2F7372632F6808
S1132AC0616C5F696F2E63002E2E2F68616C2F730B
S1132AD072632F68616C5F7370695F6D5F73796E89
S1132AE0632E63002E2E2F68616C2F7372632F6820
S1132AF0616C5F74696D65722E6300002E2E2F6801
S1132B00616C2F7372632F68616C5F75736172748B
S1132B105F73796E632E63002E2E2F68616C2F75A0
S1132B2074696C732F7372632F7574696C735F6C43
S1132B306973742E63000000000000004000000070
S1132B402E2E2F68706C2F6569632F68706C5F651B
S1132B5069632E6300000000003000400034004030
S1132B6000200141004001410000004300040043F3
S1132B7000080043000C00430000000000000000B7
S1132B800000000000000000000000000000000041
S1132B902E2E2F68706C2F736572636F6D2F6870A3
S1132BA06C5F736572636F6D2E63000000380040C4
S1132BB0003C004000A0014100C00141001400425B
S1132BC0001800420014004300180043070072007C
S1132BD0080300000000000070170000000000005F
S1132BE02E2E2F68706C2F74632F68706C5F746363
S1132BF02E6300005265636569766564210A0000EE
S1132C00F8B500BFF8BC08BC9E46704789020000B6
S1132C10F8B500BFF8BC08BC9E46704765020000CA
S1132C2048656C6C6F20576F726C64210A00000059
S9030000FC
